:020000040008F2
:04000000004815B8E7
:200004007622761F17E0CC1EFF005014961E1A2400011A200003761F17E61800FFFD18007D
:20001400FFFE761F17E0CC00F0FF1AA903009600761F17E61A0000021A000001761F17ECCB
:20002400CC00FFF0500A9600761AF6077700FF6900067622761F17E0CC1EFF005014961E7A
:1E0034001820FFFC1824FFFE761AFF690006190156C3FFFF0006190156C3FFFF0006D6
:20004400761BFFF0E20000BDE63006002942561676256F00761BFFF0E20000BDE630060045
:200054002942561676256F00761BFFF0E20000BDE63006002942561676256F00761BFFF00F
:20006400E20000BDE63006002942561676256F00761BFFF0E20000BDE630060029425616CE
:2000740076256F00761BFFF0E20000BDE63006002942561676256F00761BFFF0E20000BD27
:20008400E63006002942561676256F00761BFFF0E20000BDE63006002942561676256F0043
:20009400761BFFF0E20000BDE63006002942561676256F00761BFFF0E20000BDE6300600F5
:2000A4002942561676256F00761BFFF0E20000BDE63006002942561676256F00761BFFF0BF
:2000B400E20000BDE63006002942561676256F00761BFFF0E20000BDE6300600294256167E
:2000C40076256F00761BFFF0E20000BDE63006002942561676256F00761BFFF0E20000BDD7
:2000D400E63006002942561676256F00761BFFF0E20000BDE63006002942561676256F00F3
:2000E400761BFFF0E20000BDE63006002942561676256F00761BFFF0E20000BDE6300600A5
:2000F4002942561676256F00761BFFF0E20000BDE63006002942561676256F00761BFFF06F
:20010400E20000BDE63006002942561676256F00761BFFF0E20000BDE6300600294256162D
:2001140076256F00761BFFF0E20000BDE63006002942561676256F00761BFFF0E20000BD86
:20012400E63006002942561676256F00761BFFF0E20000BDE63006002942561676256F00A2
:20013400761BFFF0E20000BDE63006002942561676256F00761BFFF0E20000BDE630060054
:200144002942561676256F00761BFFF0E20000BDE63006002942561676256F00761BFFF01E
:20015400E20000BDE63006002942561676256F00761BFFF0E20000BDE630060029425616DD
:2001640076256F00761BFFF0E20000BDE63006002942561676256F00761BFFF0E20000BD36
:20017400E63006002942561676256F00761BFFF0E20000BDE63006002942561676256F0052
:20018400761BFFF0E20000BDE63006002942561676256F00761BFFF0E20000BDE630060004
:200194002942561676256F00761BFFF0E20000BDE63006002942561676256F00761BFFF0CE
:2001A400E20000BDE63006002942561676256F00761BFFF0E20000BDE6300600294256168D
:2001B40076256F00761BFFF0E20000BDE63006002942561676256F00761BFFF0E20000BDE6
:2001C400E63006002942561676256F00761BFFF0E20000BDE63006002942561676256F0002
:2001D400761BFFF0E20000BDE63006002942561676256F00761BFFF0E20000BDE6300600B4
:2001E4002942561676256F00761BFFF0E20000BDE63006002942561676256F00761BFFF07E
:2001F400E20000BDE63006002942561676256F00761BFFF0E20000BDE6300600294256163D
:2002040076256F00761BFFF0E20000BDE63006002942561676256F00761BFFF0E20000BD95
:20021400E63006002942561676256F00761BFFF0E20000BDE63006002942561676256F00B1
:20022400761BFFF0E20000BDE63006002942561676256F00761BFFF0E20000BDE630060063
:200234002942561676256F00761BFFF0E20000BDE63006002942561676256F00761BFFF02D
:20024400E20000BDE63006002942561676256F00761BFFF0E20000BDE630060029425616EC
:2002540076256F00761BFFF0E20000BDE63006002942561676256F00761BFFF0E20000BD45
:20026400E63006002942561676256F00761BFFF0E20000BDE63006002942561676256F0061
:20027400761BFFF0E20000BDE63006002942561676256F00761BFFF0E20000BDE630060013
:200284002942561676256F00761BFFF0E20000BDE63006002942561676256F00761BFFF0DD
:20029400E20000BDE63006002942561676256F00761BFFF0E20000BDE6300600294256169C
:2002A40076256F00761BFFF0E20000BDE63006002942561676256F00761BFFF0E20000BDF5
:2002B400E63006002942561676256F00761BFFF0E20000BDE63006002942561676256F0011
:2002C400761BFFF0E20000BDE63006002942561676256F00761BFFF0E20000BDE6300600C3
:2002D4002942561676256F00761BFFF0E20000BDE63006002942561676256F00761BFFF08D
:2002E400E20000BDE63006002942561676256F00761BFFF0E20000BDE6300600294256164C
:2002F40076256F00761BFFF0E20000BDE63006002942561676256F00761BFFF0E20000BDA5
:20030400E63006002942561676256F00761BFFF0E20000BDE63006002942561676256F00C0
:20031400761BFFF0E20000BDE63006002942561676256F00761BFFF0E20000BDE630060072
:200324002942561676256F00761BFFF0E20000BDE63006002942561676256F00761BFFF03C
:20033400E20000BDE63006002942561676256F00761BFFF0E20000BDE630060029425616FB
:2003440076256F00761BFFF0E20000BDE63006002942561676256F00761BFFF0E20000BD54
:20035400E63006002942561676256F00761BFFF0E20000BDE63006002942561676256F0070
:20036400761BFFF0E20000BDE63006002942561676256F00761BFFF0E20000BDE630060022
:200374002942561676256F00761BFFF0E20000BDE63006002942561676256F00761BFFF0EC
:20038400E20000BDE63006002942561676256F00761BFFF0E20000BDE630060029425616AB
:2003940076256F00761BFFF0E20000BDE63006002942561676256F00761BFFF0E20000BD04
:2003A400E63006002942561676256F00761BFFF0E20000BDE63006002942561676256F0020
:2003B400761BFFF0E20000BDE63006002942561676256F00761BFFF0E20000BDE6300600D2
:2003C4002942561676256F00761BFFF0E20000BDE63006002942561676256F00761BFFF09C
:2003D400E20000BDE63006002942561676256F00761BFFF0E20000BDE6300600294256165B
:2003E40076256F00761BFFF0E20000BDE63006002942561676256F00761BFFF0E20000BDB4
:2003F400E63006002942561676256F00761BFFF0E20000BDE63006002942561676256F00D0
:20040400761BFFF0E20000BDE63006002942561676256F00761BFFF0E20000BDE630060081
:200414002942561676256F00761BFFF0E20000BDE63006002942561676256F00761BFFF04B
:20042400E20000BDE63006002942561676256F00761BFFF0E20000BDE6300600294256160A
:2004340076256F00761BFFF0E20000BDE63006002942561676256F00761BFFF0E20000BD63
:20044400E63006002942561676256F00761BFFF0E20000BDE63006002942561676256F007F
:20045400761BFFF0E20000BDE63006002942561676256F00761BFFF0E20000BDE630060031
:200464002942561676256F00761BFFF0E20000BDE63006002942561676256F00761BFFF0FB
:20047400E20000BDE63006002942561676256F00761BFFF0E20000BDE630060029425616BA
:2004840076256F00761BFFF0E20000BDE63006002942561676256F00761BFFF0E20000BD13
:20049400E63006002942561676256F00761BFFF0E20000BDE63006002942561676256F002F
:2004A400761BFFF0E20000BDE63006002942561676256F00761BFFF0E20000BDE6300600E1
:2004B4002942561676256F00761BFFF0E20000BDE63006002942561676256F00761BFFF0AB
:2004C400E20000BDE63006002942561676256F00761BFFF0E20000BDE6300600294256166A
:2004D40076256F00761BFFF0E20000BDE63006002942561676256F00761BFFF0E20000BDC3
:2004E400E63006002942561676256F00761BFFF0E20000BDE63006002942561676256F00DF
:2004F400761BFFF0E20000BDE63006002942561676256F00761BFFF0E20000BDE630060091
:200504002942561676256F00761BFFF0E20000BDE63006002942561676256F00761BFFF05A
:20051400E20000BDE63006002942561676256F00761BFFF0E20000BDE63006002942561619
:2005240076256F00761BFFF0E20000BDE63006002942561676256F00761BFFF0E20000BD72
:20053400E63006002942561676256F00761BFFF0E20000BDE63006002942561676256F008E
:20054400761BFFF0E20000BDE63006002942561676256F00761BFFF0E20000BDE630060040
:200554002942561676256F00761BFFF0E20000BDE63006002942561676256F00761BFFF00A
:20056400E20000BDE63006002942561676256F00761BFFF0E20000BDE630060029425616C9
:2005740076256F00761BFFF0E20000BDE63006002942561676256F00761BFFF0E20000BD22
:20058400E63006002942561676256F00761BFFF0E20000BDE63006002942561676256F003E
:20059400761BFFF0E20000BDE63006002942561676256F00761BFFF0E20000BDE6300600F0
:2005A4002942561676256F00761BFFF0E20000BDE63006002942561676256F00761BFFF0BA
:2005B400E20000BDE630060029425616E28000BEFFF176177602761BFFF0E20000BDE6304B
:2005C40006002942561676256F00FE187D5397529651A84A56BF01552B5702011E4E925248
:2005D400520169032B556F0356BF0155925CFFE000CC28AC000E8F0150043051560100A410
:2005E4008AC492C4965430518F015006560100A48AC492C496562D51064E563B1E509255BF
:2005F40061459253520667058A4A0EC41E4C6F048A4A06C41E4C1E46925396489252964725
:20060400925B611388540E560FA6610F28AC000E30518F015006560100A48AC492C496563C
:2006140088540E560FA660F528AC000E8F0150005DAD30512901560100A4DD8856030254F6
:200624005DA507C48AA902047648156F92549C019001965428AC000E8F01500430515601D2
:2006340000A48AC4925496C46F6F925B60179254600758518F03FD8092945201610A925463
:200644005201603458518F03FDA092945201602E92549C01900196546F2988540E560FA645
:20065400612528AC000E30518F015006560100A48AC492C4965692545201600758518F0351
:20066400FD809294520161099254600C58518F03FDA092945201600692549C01900196540F
:200674006F0588540E560FA660DF935292545DAD97419642925CDD88935396435DA58A4A51
:200684009251764806AF5DAD28AC000E8F0150003051DD88560100A429015DA55603025478
:2006940007C48AA902047648156F92549C019001965428AC000E8F0150043051560100A4C0
:2006A4008AC4925496C40650761F1400980499059257FE980006FE0897469645A044A8425E
:2006B400924C604D924DFFE0009558458F03F94056BF01949246520667192B47924B54479C
:2006C400692F2901C4425847560301458F4151C0560100A588965603014707C58AA9C2C4EF
:2006D4000A47924B544766EF6F1B2B47924B544769172901560301458F0151C0560100A48F
:2006E4005603014707C41EA65603014707428AA906C48AA61EC40A47924B544766EC584515
:2006F4008F03F9402B942901560301458F0151C0560100A4834406C41ED56F4B924D604931
:2007040058458F03F96056BF01949246520667192B47924B5447692F2901C4425847560349
:2007140001458F415200560100A588965603014707C58AA9C2C40A47924B544766EF6F1B75
:200724002B47924B544769172901560301458F015200560100A45603014707C41EA656031C
:20073400014707428AA906C48AA61EC40A47924B544766EC58458F03F9602B942901560320
:2007440001458F015200560100A4834406C41ED58A44924696C48A44924B96CCFE88000655
:20075400FE0E7D4A7C491E462B4B9254600C28AC000E8F01500A3051560100A48AC492C4D5
:2007640096496F0B28AC000E8F01500A3051560100A48AC492C4964988490E4A0FA66057BC
:20077400761F14000602CE46CF451E4806486135924A9C019001964A9254601230518F01EF
:200784005008560100A429015603024A07C45CAD83A9DC8402045CA47648156F6F1130518A
:200794008F015008560100A429015603024A07C45CAD83A9DC8402045CA47648156F885310
:2007A4000E440FA6610356BF024B88520E430FA661061A4B00046F0356BF014B9254600C93
:2007B40028AC000E8F01500A3051560100A48AC492C496496F4E28AC000E8F01500A305150
:2007C400560100A48AC492C496496F439254601E30518F015008560100A429015603024A4E
:2007D40007C45CAD83A9DC8402045CA47648156F88530E440FA6610356BF024B88520E438A
:2007E4000FA661271A4B00046F2402001E4E064E611E30518F015008560100A42901560394
:2007F400024A07C45CAD83A9DC8402045CA47648156F88530E440FA6610356BF024B88526F
:200804000E430FA661061A4B00046F0356BF014B924BFE8E0006FE1897529651A04CA84AF8
:2008140056BF015456BF01562B5702011E4E9252520169032B546F0356BF0154925D601799
:2008240028AC000E8F01500A3051560100A48AC492C4965330518F01500C560100A48AC429
:2008340092C496552D51064E563B1E509256617A925D6073925460169255600758518F0328
:20084400FD4092945201610A92555201600B58518F03FD6092945201600592559C01900143
:20085400965593519252974196425D55925B9643925D96445C53065076480754965728AC01
:20086400000E8F0150083051560100A429015603025507C45CAD83A9DC8802045CA4764800
:20087400156F9257603A9254611B925B520667058A4A924696C46F048A4A06461EC49255E8
:200884009C019001965528AC000E8F01500C3051560100A48AC4925596C42B566F1E93526F
:2008940092555DAD97419642925DDD88935B96435DA58A4A9251764808C092559C01900134
:2008A400965528AC000E8F01500C3051560100A48AC4925596C42B56925C60022B56925636
:2008B40060888A4C925796C4761F14000650980099019257FE980006FE0A97469645A044C9
:2008C400A842924E6038924F606C58458F03F98056BF01948A4406D41E4A924652066713F9
:2008D4002B47924D54476922290156030147074A8AA98342584706C496950A47924D54471A
:2008E40066F56F142B47924D54476910290156030147074A8AA9C4C45603014707428AA9BD
:2008F400C2C40A47924D544766F358458F03F9802B946F37924F603558458F03F9A056BFDA
:2009040001948A4406D41E4A9246520667132B47924D54476922290156030147074A8AA9BE
:200914008342584706C496950A47924D544766F56F142B47924D5447691029015603014791
:20092400074A8AA9C4C45603014707428AA9C2C40A47924D544766F358458F03F9A02B9459
:20093400FE8A0006FE087C479746964502011E429247606029018F03F8005603034528AC6F
:20094400000E560100A48F4150003045560100A5A8C530458F415004560100A58F03F9006C
:20095400A8A90D451EC530458F41500C560100A58F03F920A8A90D451EC58F0150023B0111
:200964003045560100A42D459A01FF6685A91EC4290128AC000E8F03FC00560303455601EF
:2009740000A48F4150083045560100A5A8C58F41500A3045560100A58F03FD00A8A90D45EC
:200984001EC58F4150063045560100A58F03FD20A8A90D451EC58F0150043045560100A450
:200994008AC42BC48F01500C3045560100A48AC42BC406422D45563B1E44761F140098007F
:2009A400990192465201691792455201601429018F0151C056030145560100A48F40D0004C
:2009B400A0C4560301458F015200560100A48F40D002A0C4FE880006FE067D451E44A842A0
:2009C400761F1400CE08CF09FF58610456BF01466F0C924552016004061E96C46F05520255
:2009D4006003061E1EC42B469246FE860006FE047C431E42761F1400064ACA42CB41CE08BF
:2009E400CF09FF58610456BF01446F1292435201600402071E186F055202600302081E184E
:2009F40006481E1A064ACA42CB411E042B449244FE840006FE047C431E42761F1400064CEA
:200A0400CA42CB41CE08CF09FF58610456BF01446F1992435201600902011E1806481E1A1E
:200A1400064A91001E1C6F095202600702021E1806481E1A064A1E1C064CCA42CB411E049E
:200A24002B449244FE840006FE047C431E42761F1400064CCA42CB41CE08CF09FF58610447
:200A340056BF01446F1992435201600902091E1806481E1A064A91001E1C6F09520260071A
:200A4400020A1E1806481E1A064A1E1C064CCA42CB411E042B449244FE840006FE047C4326
:200A54001E42761F1400064CCA42CB41CE08CF09FF58610456BF01446F1992435201600932
:200A640002031E1806481E1A064A91001E1C6F095202600702041E1806481E1A064A1E1C17
:200A7400064CCA42CB411E042B449244FE840006FE047C431E42761F1400064CCA42CB41D5
:200A8400CE08CF09FF58610456BF01446F19924352016009020B1E1806481E1A064A9100CB
:200A94001E1C6F0952026007020C1E1806481E1A064A1E1C064CCA42CB411E042B449244B0
:200AA400FE840006FE047C431E42761F1400064CCA42CB41CE08CF09FF58610456BF0144B2
:200AB4006F1492435201600402051E186F055202600302061E1806481E1A064A1E1C064C0B
:200AC400CA42CB411E042B449244FE840006FE047C431E42761F1400064CCA42CB41CE0801
:200AD400CF09FF58610456BF01446F14924352016004020D1E186F0552026003020E1E184F
:200AE40006481E1A064A1E1C064CCA42CB411E042B449244FE840006FE041E42761F14007E
:200AF400064CCA42CB41CE08CF09FF58610456BF01436F0C02121E1806481E1A064A1E1CE0
:200B0400064CCA42CB411E042B439243FE840006FE0C7C4B1E488F05F444A84A924B600D3B
:200B1400064A1E42D40206501E4406521E46064876480A28964C6F0E5201600C064A1E42BB
:200B2400D40206501E4406521E46064876480A7C964C924CFE8C0006FE061E420642761F44
:200B34001400CE02CF03FF5861FA02070F10600B06121E468A460EC41E16064ACA42CB41EC
:200B44001E006F1002080F10600B06121E448A4406C41E16064ACA42CB411E006F030642DA
:200B54001E00FE860006FE061E420642761F1400CE02CF03FF5861FA02010F10600E061288
:200B64001E448A44061498C48A440EC41E16064ACA42CB411E006F1402020F10600F061244
:200B74001E468A46061498C499CC8A4606C41E16064ACA42CB411E006F0306421E00FE86A2
:200B84000006FE061E420642761F1400CE02CF03FF5861FA762202090F10600E06121E44F8
:200B94008A44061498C48A440EC41E16064ACA42CB411E006F14020A0F10600F06121E460A
:200BA4008A46061498C499CC8A4606C41E16064ACA42CB411E006F0306421E00761AFE8646
:200BB400FF690006FE061E420642761F1400CE02CF03FF5861FA02030F10600F06121E44FD
:200BC4008A440614FF5EC0C48A440EC41E16064ACA42CB411E006F1502040F1060100612BD
:200BD4001E468A460614FF55C0C4C1CC8A4606C41E16064ACA42CB411E006F0306421E0022
:200BE400FE860006FE061E420642761F1400CE02CF03FF5861FA7622020B0F10600F061273
:200BF4001E448A440614FF5EC0C48A440EC41E16064ACA42CB411E006F15020C0F1060103B
:200C040006121E468A460614FF55C0C4C1CC8A4606C41E16064ACA42CB411E006F030642F7
:200C14001E00761AFE86FF690006FE061E420642761F1400CE02CF03FF5861FA02050F1051
:200C2400600E06121E468A46061496C48A460EC41E16064ACA42CB411E006F1302060F107D
:200C3400600E06121E448A4406141EC48A4406C41E16064ACA42CB411E006F0306421E00C4
:200C4400FE860006FE061E420642761F1400CE02CF03FF5861FA7622020D0F10600E061211
:200C54001E468A46061496C48A460EC41E16064ACA42CB411E006F13020E0F10600E061245
:200C64001E448A4406141EC48A4406C41E16064ACA42CB411E006F0306421E00761AFE8606
:200C7400FF690006FE041E420642761F1400CE02CF03FF5861FA02120F10600E06121E4430
:200C8400C54406143E67761F14001E160648CA42CB411E006F0306421E00FE840006770050
:200C94007700770077007700FF69000676480D5876480C9F00067622761F174C1A22000197
:200CA4001A2200041A2200081A2200101A2200201A2300041A2600011A2600021A260004FC
:200CB4001A2600081A2600101A2600201A2600401A2600801A2601001A2602001A26040021
:200CC4001A2608001A2800011A2800021A2800041A2800081A2800101A2800201A2A0001B8
:200CD4001A2A00021A2A00041A2E00011A2E00021A3000011A3000021A3000041A300008A8
:200CE4001A3200011A3200021A3200041A3400011A3400021A3600011A3600021A38000170
:200CF4001A3800021A3C00011A3C00021A3C00041A3C00081A3E00011A3E00021A3E000416
:200D04001A3E00081A3E00101A3E00201A3E00401A3E0080761F174D1A0300011A030002E9
:200D14001A030004761AFF69000676220200761F174C1E221E241E261E281E2A1E2E1E3020
:200D24001E321E341E361E381E3A1E3C1E3E761F174D1E02761AFF69000676226F059A0197
:200D340028A85A5A1E24761F140092249003520160F7761AFF69000676229A0028A85A5A89
:200D4400761F14001E24761AFF6900067622761F01C0CC25FF0050559625CC25FF0050AA7E
:200D54009625761AFF690006FE027622761F01C0922990079641924150689629761AFF696D
:200D6400FE820006FE107D467C45974496432B482B49761F17488843920A90030EA90FA662
:200D7400601F8844921E907F0EA90FA660198845CC1E0300FFC70EA90FA66012884692248E
:200D840090030EA90FA6FFE100CB6F0A76480EAA6F0D76480EB46F0A76480EC06F0792436A
:200D940061F6520161F7520461F87622761F17481818FFFD761AF6787700761F174D923C9A
:200DA4009007964DCC3C0038FFC2964E761F00309214964A06121E429216964B9217964CF9
:200DB4007622761F174DCC3CFFF85006963C183CFFC7761F00301A140010020A1E122B16CD
:200DC4002B171814BFFF761F17481A240003761A6F347622761F17481818FFFEF614770041
:200DD40056030845CA440EA91E1E1A180001761A92209001520160FD76221A180002F614CC
:200DE4007700761F00301A1400201814FFEF2B471B4703E8670E761F00304F146C061A144F
:200DF400800056BF01496F050A471B4703E868F41A1400100A48761A9248520567039249FC
:200E040061C99249600876220200761F17481E1E761A76252B4F6F1976221818FFFDF67838
:200E140077001818FFFEF614770056030845CA440EA91E1E92209001520160FD1A180002CB
:200E2400F61477000A4F761A761F174841206C04924F520A68E276229246CD24FFFC900309
:200E3400CAA89624761F174D924D9007CD3CFFF8CAA8963C924E9007FF82CD3CFFC7CAA886
:200E4400963C924A761F0030961406421E12924B9616924C96171A140020761AFE90FF6911
:200E5400000676220200761F17C019011E10020019011E12020019011E14020019011E1640
:200E64000200761F17C119011E10020019011E12020019011E14020019011E16761A9A00A3
:200E7400FF6900067622761F1748CC08FFFC50029608F6FA7700F63277001A080010761ADD
:200E8400FF6900067622761F17481808FFF7F6FA7700F63277001808FFFCF6FA7700F6328E
:200E940077001A080010761AFF6900067622761F17481808FFEFF6FA7700F6327700CC0823
:200EA400FFFC50019608761AFF6900067622761F17481808FFF7180AFFFC761AFF69000689
:200EB4007622761F17481808FFEFCC0AFFFC5001960A761AFF6900067622761F1748CC0A62
:200EC400FFFC5002960A761AFF6900067622761F174D1836FFFC761A7621FF69000676221C
:200ED400761F174DCC36FFFC50019636761A7621FF69000676480ECA000676480ED3000615
:200EE400FE0697449643A8429244520160192B4592435445653A3B01761F01C8CC1A1F008E
:200EF400FFC7521061FA854507428AA9881992C43CA67E190A459243544562EF6F262B4592
:200F04003B016F1C2B46924652016217761F01C8CC1A1F00FFC7521061FA854507428AA9C5
:200F14008019560303462DA992C4FF623CA77F190A469246520165EB0A45934392A8FFCE83
:200F240094A8FFA0544562DF9A00FE860006FE10974C964BA8422B4E2B4F8F1AB3F0A84AE7
:200F34002B4D544D6572761F003006101E4602001E446F18761F003006101E4806460F489F
:200F4400680403481E446F09034828ABFFFF28AAFFFF560100ABA944064A0F4466039A017A
:200F54006F55761F01C8CC1B1F00FFC761E4924C5201651F924F600F934D92A83B01FFCE22
:200F640094A8FFA085A907428AA9C61796C456BF014F6F15934D92A83B01FFCE94A8FFA0CA
:200F740085A907428AA95603081798C42B4F6F073B018817854D07428AA97EC4CC1B80001D
:200F8400FFCE520160031A1B400044156C0356BF044E42156C0356BF034E43156C0356BF1E
:200F9400054E45156C0356BF064ECC150080FFC6520160071A1100201811FFDF1A1100203B
:200FA4000A4D924B544D6290924EFE900006FE0C97469645A044A8422B472B482B492B4A94
:200FB400924F9445964B2B4C8A522BC4924B5447FFE50094761F01C8CC1B1F00FFC761586D
:200FC4009246520165369217964C92496010934792A83B01FFCE94A8FFA085A907428AA9CF
:200FD400924C90FF96C456BF01496F0E934792A83B01FFCE94A8FFA085A907428AA956035F
:200FE400084C98C42B49924F6141854A07448AA9884C0EC40FA6600B0A4A924F544A6036CA
:200FF4008A5292479E4F9C0196C46F572B4A6F2E3B018817854707428AA97EC4924F6116AF
:20100400854A07448AA988C4854707428AA980C406A60FA7601B0A4A924F544A60178A52A4
:2010140092479E4F9C0196C46F382B4A6F0F924760039A076F548A5296C48A52924554C4C4
:20102400630296C456BF08486F280A47CC1B8000FFCE520160031A1B400044156C0356BF64
:20103400044842156C0356BF034843156C0356BF054845156C0356BF0648CC150080FFC6AF
:20104400520160071A1100201811FFDF1A110020924B5447FFE2FF70924F600892485208F0
:20105400611D8A52924B96C46F198A5292C4601692479C01544A610792479CFF96C456BF5C
:2010640008486F0356BF07488A52924554C4630296C48A5292C463022BC49248FE8C0006CC
:20107400FE0A97469645A044A8422D46124593A9FFCE94A8FFA096492B47544765223B0171
:20108400854707428AA92BC42B489248520263153B018547074283A956030147944885A9D4
:2010940007448AA9560303482DA992C4FF6672C50A489248520264EE0A479249544762E077
:2010A4009A00FE8A00068F4080008F008000A0A9564100A4A8A98F0080007648156F28A9AF
:2010B400003F28A800008F4800048F0080007648156F764080000006FE0A02001E4A8F03A1
:2010C400FFF0A848C4D49A0028A880008F000425C242A844D4021E46020176480AA6FE8AD0
:2010D4000006FE0E1E488F03FFF0A84A02001E4C8F010000A84E0648984E994D0654FF3775
:2010E400984E994D0652FF39984E994D8A4A06C41E42C44E9A0028A88000C2441E4602015D
:2010F40076480AF05CADD5029A0028A88000DC8C5CA4764809C0520060F6FE8E0006FE0E25
:201104001E488F03FFF0A84A02001E4C1E4E0648984E994D0652FF37984E994D06F41E424C
:20111400C44E9A0028A88000C2441E46020176480AF05CADD5029A0028A88000DC8C5CA468
:20112400764809C0520060F6FE8E0006FE0E1E488F03FFF0A84A02001E4C1E4E0648984CFB
:20113400994B0652FF37984C994B0654FF3F984C994B28AC00180656563B984C994B28AC8C
:20114400001C0658563B984C994B0208074A8AA906C41E42C44C9A0028A88000C2441E469C
:20115400020176480AF05CADD5029A0028A88000DC8E5CA4764809C0520060F6FE8E0006CB
:20116400FE0E1E488F03FFF0A84A02001E4C1E4E0648984C994B0652FF37984C994B0654E8
:20117400FF3F984C994B28AC00180656563B984C994B020A074A8AA906C41E42C44C9A0050
:2011840028A88000C2441E46020176480AF05CADD5029A0028A88000DC8E5CA4764809C01B
:20119400520060F6FE8E0006FE0E1E488F03FFF0A84A02001E4C1E4E0648984C994B0652D6
:2011A400FF37984C994B0654FF3F984C994B28AC00180656563B984C994B020C074A8AA99A
:2011B40006C41E42C44C9A0028A88000C2441E46020176480AF05CADD5029A0028A8800008
:2011C400DC8E5CA4764809C0520060F6FE8E0006FE0E1E488F03FFF0A84A02001E4C1E4E23
:2011D4000648984C994B0652FF37984C994B020E074A8AA906C41E42C44C9A0028A88000D7
:2011E400C2441E46020176480AF05CADD5029A0028A88000DC8E5CA4764809C0520060F663
:2011F400FE8E00060202761F205E07048AA90ACC8A0492DC520969022BDC0006FE08761FB4
:20120400205E8A0492DC605756BF08412B429A008F01525C8F4152609B012B437648080F95
:20121400761F054992355201611056BF01352B442B452B469A048F01525C9B0476480EE486
:201224009645761F05492B352B4756BF01482B4692465202630D3B015CADDC855CA4A8A9B8
:2012340081468AA92BC40A469246520264F62B47924861175CAD9A049B04DC855CA47648B2
:201244000F2B96477700520061035208600A5CAD0202FF69DC855DA48F01525E7648156F29
:201254002B419A018F01525ED5089B01FF692B42764805C9764811F6FE8800069A00D4009A
:201264009B0176480936E590761F0549E203001E0200761F003019011E12020019011E101B
:201274002B161814FFEFD4009A019B0176480936000600068F000C00761F0549A8000200C3
:20128400761F003019011E022B062B071A0400101A0400200200761F05491E028F000C08D4
:20129400A8088F000C10A810761F003019011E0A761F0030020019011E12761F00302B0E11
:2012A4002B0F761F00302B162B17761F00301A0C0010761F00301A140010761F00301A0CBF
:2012B4000020761F00301A140020761F054902001E0A1E120006FE08E2030146E203004449
:2012C400A84206441EE48A4206461EF4E2AF0044E2AF0146E70000087700E68800007700B2
:2012D400E20300488A428AC4064819011ED48A428AC42BF48A428AC42BFC8A428AC41AE4C7
:2012E40000108A428AC41AE400208A428AC418E4FBFF8A428AC418E4F7FF8A428AC41AE46E
:2012F40040008A4202001ED4FE880006FE0CE203014AE20300488F03FFF0A84CC4E49A0030
:2013040028A880008F00036EC242A844D4021E46020176480AA6E8024BA0E2AF01488F019F
:201314005240E8092000E302084A764812BF761F00301804FFEF7622761F00358F08146A0A
:20132400A80C761A761F00331A22004076230001FF69FE8C0006761F00301A040010000696
:201334003B107622761F00331A220040761A2910FF690006FE022B413B109A00761F003322
:2013440046226C029A01964176221822FFBFF6057700762FFFFE56BF0121761A2910FF6935
:20135400FE820006FE02964192416104764813346F037648133EFE820006761F054992293A
:201364000A295200610556BF01280B296F0A76481334764812027648133E761F05490B2996
:201374000006FE042842D70A28413C23E8021A40E2030044761F05492B2A2B2B764810A7CE
:2013840076481525761F205E8A0402001EC476481262764815A6E2AF0042E2AF01447648BA
:2013940012FA761F205E8A04BE0006C46002BE01761F05497E2B764813347648159E761F4C
:2013A4000549922B6111761F205E8A04B600BE0006C46002BE0192A66002B601761F054978
:2013B4007F2A922B60F17648127D764815A69A00FE840006FE028F007029A842762256BFBB
:2013C40068C4761AFF69FE820006761F05492B357622761F174C1A3000027700761F01C86B
:2013D4001810FF7F1810FFBF1810FFDF1810FFEF1810FFF71A1000071811FFBF1A110020D0
:2013E4001A1100021A1100011812FF00CC13FF0050D896131A1F0018181CBFFF181CDFFF63
:2013F4001A1A80001A1A40001A1A20001A1B2000761AFF690006FE047622BE000202FF6946
:20140400C2421E440213764810D5BE000202C2421E440212764810D5761AFF69FE8400064B
:2014140028AD0080FF69561F5616561AE61002002940761F00002902761B764815C0520013
:201424006142762228A9178828A800080901611B76C8178829046F0F9B0024A9DF016C045F
:20143400290424A8DF011EA6F7A1248606A781A109011EA724A96303FF5C3B0459A9DF016C
:201444000009FFEC28A9FFFF28A8FFFF090161058F3FFFFF7648154B761A764815C228A9A7
:20145400FFFF28A8FFFF0901610E76FFFFFF6F06DF01C3BD1EA73E67C5BE24A9DF0124A885
:20146400FF5860F77648158C764814B0761BFFF00005ABBDA8BDA0BDC2BDC3BDE20000BD8C
:20147400E20300BDE20301BDE20302BDE20303BDE6300600FE02FF6929425616761F0033A7
:20148400922296411822FFBFF6057700762FFFFE56BF0121762300012910FF69764813610D
:201494003B109241761F00339622FE82E2AF03BEE2AF02BEE2AF01BEE2AF00BEE28000BEB8
:2014A400C5BEC4BE83BE8ABE87BE00033B30FFF17617760277006F00B2BD761F054959A9B8
:2014B4009222610D28ABFFFF28AAFFFF28A9FFFF28A8FFFF0FAB6103767FFFFF761F0549C4
:2014C400C5303E67761F0549062661041EA792A13E67761F0549062461031EA73E677648C4
:2014D40014AE8BBE00063B10761F00331820FFFE2B222B242B262B282B2A2B2C2B2E2B30FF
:2014E4002B322B342B362B382B232B252B272B292B2B2B2D2B2F2B312B332B352B372B393C
:2014F400FF690006761F00331A2000012821FFFF2910FF690006FE068F0815C4A8428F008C
:201504000D00A844020607421E42020607441E4476222B45924552DD670D83448A42A0A90A
:20151400C4840902A8421E44C2C50A45924552DD68F5761A761F00331A200001FF69FE8660
:20152400000676480D587622761F174C1A2200041A2E00011A2E0002761A7622FF697648CD
:2015340010C0761F1748182CFFF8761A3B1076260000762F0000FF69764814D7764814FF9A
:20154400764813C9764813FF7648127E0006B2BDAABDA2BDFE0882A4D1005ACB6F155CADE5
:201554002901560303A107A3DC8809025CA483A902087648156F064261068A4483467648BB
:20156400156F5ACBD90192A254A166EAFE8882BE86BE8BBE00065200A8ABC5A4610788A96B
:20157400DE815C857C87000EFFFE88A90FA6610F5300610D9DFF5CA876BFFFFE92859687EC
:20158400000EFFFE92859687000CFFF8A9A40006020028ABFFFF28AAFFFF19010FAB6004D7
:201594009A00D4006F05A9A492C4A9A4DC02764813750006761F0549923460047608293057
:2015A40092BE000676083B3092BE761F05499634183400010006761F0549A8320006761F40
:1E15B4000549A83000060006561F7622B9C028290068761A004814149A010006000601
:2015C40005A8000805A8000805A8000805A8000805A8000805A8000805A8000805A800085F
:2015D40005A8000805A8000805A8000805A8000805A8000800440008004E0008005800086C
:2015E40000620008006C00080076000800800008008A000800940008009E000800A800087F
:2015F40000B2000800BC000800C6000800D0000800DA000800E4000800EE000800F80008EF
:2016040001020008010C00080116000801200008012A000801340008013E00080148000856
:2016140001520008015C00080166000801700008017A000801840008018E000801980008C6
:2016240001A2000801AC000801B6000801C0000801CA000801D4000801DE000801E8000836
:2016340001F2000801FC00080206000802100008021A00080224000805A8000805A80008B0
:20164400022E0008023800080242000805A8000805A8000805A8000805A8000805A8000837
:20165400024C00080256000802600008026A000802740008027E00080288000802920008AE
:20166400029C000802A6000802B0000802BA000802C4000802CE000805A8000805A8000882
:2016740002D8000802E2000802EC000802F6000803000008030A000803140008031E00082A
:201684000328000803320008033C00080346000803500008035A000803640008036E000896
:201694000378000803820008038C00080396000803A0000803AA000803B4000803BE000806
:2016A40003C8000803D2000803DC000803E6000803F0000803FA000804040008040E000874
:2016B4000418000804220008042C000805A8000805A800080436000804400008044A00083E
:2016C40005A8000805A8000805A8000805A8000804540008045E0008046800080472000876
:2016D400047C00080486000804900008049A000805A8000805A8000805A8000805A80008C6
:2016E40004A4000804AE000804B8000804C2000805A8000805A8000805A8000805A8000816
:2016F40005A8000805A8000805A8000805A8000805A8000805A8000805A8000805A800082E
:2017040004CC000804D6000805A8000805A8000805A8000805A8000805A8000805A80008CD
:2017140004E0000804EA000805A8000805A8000805A8000805A8000805A8000805A8000895
:2017240005A8000805A8000805A8000805A8000805A8000805A8000805A8000805A80008FD
:2017340005A8000805A8000805A8000805A8000805A8000805A8000805A8000805A80008ED
:2017440005A8000805A8000805A8000805A8000805A8000805A8000805A8000805A80008DD
:201754000508000805120008051C00080526000805300008053A000805440008054E0008B5
:2017640005A8000805A8000805A8000805A8000805A8000805A8000805A8000805A80008BD
:201774000558000805620008056C00080576000805800008058A000805940008059E000815
:0417840052580001B6
:20178800FFFF526C000100FFFFFF526D000100FFFFFF526E00010000FFFFF94000030000CF
:20179800FFFFF98000030000FFFFF96000030000FFFFF9A000030000FFFF5262000100010F
:2017A800FFFE5264000100000000FFFE5266000100000000FFFF526800010000FFFF526945
:2017B80000010000FFFE5270000115B70008FFFE5272000115B70008FFFF526F0001000026
:0417C800000000001D
:00000001FF
